{
	"messenger.sol": {
		"messenger": {
			"abi": [
				{
					"inputs": [],
					"name": "getLength",
					"outputs": [
						{
							"internalType": "uint256",
							"name": "",
							"type": "uint256"
						}
					],
					"stateMutability": "view",
					"type": "function"
				},
				{
					"inputs": [],
					"name": "readMessage",
					"outputs": [
						{
							"internalType": "string",
							"name": "",
							"type": "string"
						}
					],
					"stateMutability": "view",
					"type": "function"
				},
				{
					"inputs": [
						{
							"internalType": "string",
							"name": "_message",
							"type": "string"
						}
					],
					"name": "sendMessage",
					"outputs": [],
					"stateMutability": "nonpayable",
					"type": "function"
				}
			],
			"devdoc": {
				"kind": "dev",
				"methods": {},
				"version": 1
			},
			"evm": {
				"assembly": "    /* \"messenger.sol\":57:383  contract messenger{... */\n  mstore(0x40, 0x80)\n  callvalue\n  dup1\n  iszero\n  tag_1\n  jumpi\n  0x00\n  dup1\n  revert\ntag_1:\n  pop\n  dataSize(sub_0)\n  dup1\n  dataOffset(sub_0)\n  0x00\n  codecopy\n  0x00\n  return\nstop\n\nsub_0: assembly {\n        /* \"messenger.sol\":57:383  contract messenger{... */\n      mstore(0x40, 0x80)\n      callvalue\n      dup1\n      iszero\n      tag_1\n      jumpi\n      0x00\n      dup1\n      revert\n    tag_1:\n      pop\n      jumpi(tag_2, lt(calldatasize, 0x04))\n      shr(0xe0, calldataload(0x00))\n      dup1\n      0x031d5d01\n      eq\n      tag_3\n      jumpi\n      dup1\n      0x469c8110\n      eq\n      tag_4\n      jumpi\n      dup1\n      0xbe1c766b\n      eq\n      tag_5\n      jumpi\n    tag_2:\n      0x00\n      dup1\n      revert\n        /* \"messenger.sol\":293:381  function readMessage() public view returns(string memory){... */\n    tag_3:\n      tag_6\n      tag_7\n      jump\t// in\n    tag_6:\n      mload(0x40)\n      tag_8\n      swap2\n      swap1\n      tag_9\n      jump\t// in\n    tag_8:\n      mload(0x40)\n      dup1\n      swap2\n      sub\n      swap1\n      return\n        /* \"messenger.sol\":102:190  function sendMessage(string calldata _message) public{... */\n    tag_4:\n      tag_10\n      0x04\n      dup1\n      calldatasize\n      sub\n      dup2\n      add\n      swap1\n      tag_11\n      swap2\n      swap1\n      tag_12\n      jump\t// in\n    tag_11:\n      tag_13\n      jump\t// in\n    tag_10:\n      stop\n        /* \"messenger.sol\":196:287  function getLength() public view returns(uint){... */\n    tag_5:\n      tag_14\n      tag_15\n      jump\t// in\n    tag_14:\n      mload(0x40)\n      tag_16\n      swap2\n      swap1\n      tag_17\n      jump\t// in\n    tag_16:\n      mload(0x40)\n      dup1\n      swap2\n      sub\n      swap1\n      return\n        /* \"messenger.sol\":293:381  function readMessage() public view returns(string memory){... */\n    tag_7:\n        /* \"messenger.sol\":336:349  string memory */\n      0x60\n        /* \"messenger.sol\":367:374  message */\n      0x00\n        /* \"messenger.sol\":360:374  return message */\n      dup1\n      sload\n      tag_19\n      swap1\n      tag_20\n      jump\t// in\n    tag_19:\n      dup1\n      0x1f\n      add\n      0x20\n      dup1\n      swap2\n      div\n      mul\n      0x20\n      add\n      mload(0x40)\n      swap1\n      dup2\n      add\n      0x40\n      mstore\n      dup1\n      swap3\n      swap2\n      swap1\n      dup2\n      dup2\n      mstore\n      0x20\n      add\n      dup3\n      dup1\n      sload\n      tag_21\n      swap1\n      tag_20\n      jump\t// in\n    tag_21:\n      dup1\n      iszero\n      tag_22\n      jumpi\n      dup1\n      0x1f\n      lt\n      tag_23\n      jumpi\n      0x0100\n      dup1\n      dup4\n      sload\n      div\n      mul\n      dup4\n      mstore\n      swap2\n      0x20\n      add\n      swap2\n      jump(tag_22)\n    tag_23:\n      dup3\n      add\n      swap2\n      swap1\n      0x00\n      mstore\n      keccak256(0x00, 0x20)\n      swap1\n    tag_24:\n      dup2\n      sload\n      dup2\n      mstore\n      swap1\n      0x01\n      add\n      swap1\n      0x20\n      add\n      dup1\n      dup4\n      gt\n      tag_24\n      jumpi\n      dup3\n      swap1\n      sub\n      0x1f\n      and\n      dup3\n      add\n      swap2\n    tag_22:\n      pop\n      pop\n      pop\n      pop\n      pop\n      swap1\n      pop\n        /* \"messenger.sol\":293:381  function readMessage() public view returns(string memory){... */\n      swap1\n      jump\t// out\n        /* \"messenger.sol\":102:190  function sendMessage(string calldata _message) public{... */\n    tag_13:\n        /* \"messenger.sol\":175:183  _message */\n      dup2\n      dup2\n        /* \"messenger.sol\":165:172  message */\n      0x00\n        /* \"messenger.sol\":165:183  message = _message */\n      swap2\n      dup3\n      tag_26\n      swap3\n      swap2\n      swap1\n      tag_27\n      jump\t// in\n    tag_26:\n      pop\n        /* \"messenger.sol\":102:190  function sendMessage(string calldata _message) public{... */\n      pop\n      pop\n      jump\t// out\n        /* \"messenger.sol\":196:287  function getLength() public view returns(uint){... */\n    tag_15:\n        /* \"messenger.sol\":237:241  uint */\n      0x00\n        /* \"messenger.sol\":265:272  message */\n      dup1\n        /* \"messenger.sol\":259:280  bytes(message).length */\n      dup1\n      sload\n      tag_29\n      swap1\n      tag_20\n      jump\t// in\n    tag_29:\n      swap1\n      pop\n        /* \"messenger.sol\":252:280  return bytes(message).length */\n      swap1\n      pop\n        /* \"messenger.sol\":196:287  function getLength() public view returns(uint){... */\n      swap1\n      jump\t// out\n        /* \"#utility.yul\":7:106   */\n    tag_30:\n        /* \"#utility.yul\":59:65   */\n      0x00\n        /* \"#utility.yul\":93:98   */\n      dup2\n        /* \"#utility.yul\":87:99   */\n      mload\n        /* \"#utility.yul\":77:99   */\n      swap1\n      pop\n        /* \"#utility.yul\":7:106   */\n      swap2\n      swap1\n      pop\n      jump\t// out\n        /* \"#utility.yul\":112:281   */\n    tag_31:\n        /* \"#utility.yul\":196:207   */\n      0x00\n        /* \"#utility.yul\":230:236   */\n      dup3\n        /* \"#utility.yul\":225:228   */\n      dup3\n        /* \"#utility.yul\":218:237   */\n      mstore\n        /* \"#utility.yul\":270:274   */\n      0x20\n        /* \"#utility.yul\":265:268   */\n      dup3\n        /* \"#utility.yul\":261:275   */\n      add\n        /* \"#utility.yul\":246:275   */\n      swap1\n      pop\n        /* \"#utility.yul\":112:281   */\n      swap3\n      swap2\n      pop\n      pop\n      jump\t// out\n        /* \"#utility.yul\":287:426   */\n    tag_32:\n        /* \"#utility.yul\":376:382   */\n      dup3\n        /* \"#utility.yul\":371:374   */\n      dup2\n        /* \"#utility.yul\":366:369   */\n      dup4\n        /* \"#utility.yul\":360:383   */\n      mcopy\n        /* \"#utility.yul\":417:418   */\n      0x00\n        /* \"#utility.yul\":408:414   */\n      dup4\n        /* \"#utility.yul\":403:406   */\n      dup4\n        /* \"#utility.yul\":399:415   */\n      add\n        /* \"#utility.yul\":392:419   */\n      mstore\n        /* \"#utility.yul\":287:426   */\n      pop\n      pop\n      pop\n      jump\t// out\n        /* \"#utility.yul\":432:534   */\n    tag_33:\n        /* \"#utility.yul\":473:479   */\n      0x00\n        /* \"#utility.yul\":524:526   */\n      0x1f\n        /* \"#utility.yul\":520:527   */\n      not\n        /* \"#utility.yul\":515:517   */\n      0x1f\n        /* \"#utility.yul\":508:513   */\n      dup4\n        /* \"#utility.yul\":504:518   */\n      add\n        /* \"#utility.yul\":500:528   */\n      and\n        /* \"#utility.yul\":490:528   */\n      swap1\n      pop\n        /* \"#utility.yul\":432:534   */\n      swap2\n      swap1\n      pop\n      jump\t// out\n        /* \"#utility.yul\":540:917   */\n    tag_34:\n        /* \"#utility.yul\":628:631   */\n      0x00\n        /* \"#utility.yul\":656:695   */\n      tag_68\n        /* \"#utility.yul\":689:694   */\n      dup3\n        /* \"#utility.yul\":656:695   */\n      tag_30\n      jump\t// in\n    tag_68:\n        /* \"#utility.yul\":711:782   */\n      tag_69\n        /* \"#utility.yul\":775:781   */\n      dup2\n        /* \"#utility.yul\":770:773   */\n      dup6\n        /* \"#utility.yul\":711:782   */\n      tag_31\n      jump\t// in\n    tag_69:\n        /* \"#utility.yul\":704:782   */\n      swap4\n      pop\n        /* \"#utility.yul\":791:856   */\n      tag_70\n        /* \"#utility.yul\":849:855   */\n      dup2\n        /* \"#utility.yul\":844:847   */\n      dup6\n        /* \"#utility.yul\":837:841   */\n      0x20\n        /* \"#utility.yul\":830:835   */\n      dup7\n        /* \"#utility.yul\":826:842   */\n      add\n        /* \"#utility.yul\":791:856   */\n      tag_32\n      jump\t// in\n    tag_70:\n        /* \"#utility.yul\":881:910   */\n      tag_71\n        /* \"#utility.yul\":903:909   */\n      dup2\n        /* \"#utility.yul\":881:910   */\n      tag_33\n      jump\t// in\n    tag_71:\n        /* \"#utility.yul\":876:879   */\n      dup5\n        /* \"#utility.yul\":872:911   */\n      add\n        /* \"#utility.yul\":865:911   */\n      swap2\n      pop\n        /* \"#utility.yul\":632:917   */\n      pop\n        /* \"#utility.yul\":540:917   */\n      swap3\n      swap2\n      pop\n      pop\n      jump\t// out\n        /* \"#utility.yul\":923:1236   */\n    tag_9:\n        /* \"#utility.yul\":1036:1040   */\n      0x00\n        /* \"#utility.yul\":1074:1076   */\n      0x20\n        /* \"#utility.yul\":1063:1072   */\n      dup3\n        /* \"#utility.yul\":1059:1077   */\n      add\n        /* \"#utility.yul\":1051:1077   */\n      swap1\n      pop\n        /* \"#utility.yul\":1123:1132   */\n      dup2\n        /* \"#utility.yul\":1117:1121   */\n      dup2\n        /* \"#utility.yul\":1113:1133   */\n      sub\n        /* \"#utility.yul\":1109:1110   */\n      0x00\n        /* \"#utility.yul\":1098:1107   */\n      dup4\n        /* \"#utility.yul\":1094:1111   */\n      add\n        /* \"#utility.yul\":1087:1134   */\n      mstore\n        /* \"#utility.yul\":1151:1229   */\n      tag_73\n        /* \"#utility.yul\":1224:1228   */\n      dup2\n        /* \"#utility.yul\":1215:1221   */\n      dup5\n        /* \"#utility.yul\":1151:1229   */\n      tag_34\n      jump\t// in\n    tag_73:\n        /* \"#utility.yul\":1143:1229   */\n      swap1\n      pop\n        /* \"#utility.yul\":923:1236   */\n      swap3\n      swap2\n      pop\n      pop\n      jump\t// out\n        /* \"#utility.yul\":1323:1440   */\n    tag_36:\n        /* \"#utility.yul\":1432:1433   */\n      0x00\n        /* \"#utility.yul\":1429:1430   */\n      dup1\n        /* \"#utility.yul\":1422:1434   */\n      revert\n        /* \"#utility.yul\":1446:1563   */\n    tag_37:\n        /* \"#utility.yul\":1555:1556   */\n      0x00\n        /* \"#utility.yul\":1552:1553   */\n      dup1\n        /* \"#utility.yul\":1545:1557   */\n      revert\n        /* \"#utility.yul\":1569:1686   */\n    tag_38:\n        /* \"#utility.yul\":1678:1679   */\n      0x00\n        /* \"#utility.yul\":1675:1676   */\n      dup1\n        /* \"#utility.yul\":1668:1680   */\n      revert\n        /* \"#utility.yul\":1692:1809   */\n    tag_39:\n        /* \"#utility.yul\":1801:1802   */\n      0x00\n        /* \"#utility.yul\":1798:1799   */\n      dup1\n        /* \"#utility.yul\":1791:1803   */\n      revert\n        /* \"#utility.yul\":1815:1932   */\n    tag_40:\n        /* \"#utility.yul\":1924:1925   */\n      0x00\n        /* \"#utility.yul\":1921:1922   */\n      dup1\n        /* \"#utility.yul\":1914:1926   */\n      revert\n        /* \"#utility.yul\":1952:2505   */\n    tag_41:\n        /* \"#utility.yul\":2010:2018   */\n      0x00\n        /* \"#utility.yul\":2020:2026   */\n      dup1\n        /* \"#utility.yul\":2070:2073   */\n      dup4\n        /* \"#utility.yul\":2063:2067   */\n      0x1f\n        /* \"#utility.yul\":2055:2061   */\n      dup5\n        /* \"#utility.yul\":2051:2068   */\n      add\n        /* \"#utility.yul\":2047:2074   */\n      slt\n        /* \"#utility.yul\":2037:2159   */\n      tag_81\n      jumpi\n        /* \"#utility.yul\":2078:2157   */\n      tag_82\n      tag_38\n      jump\t// in\n    tag_82:\n        /* \"#utility.yul\":2037:2159   */\n    tag_81:\n        /* \"#utility.yul\":2191:2197   */\n      dup3\n        /* \"#utility.yul\":2178:2198   */\n      calldataload\n        /* \"#utility.yul\":2168:2198   */\n      swap1\n      pop\n        /* \"#utility.yul\":2221:2239   */\n      0xffffffffffffffff\n        /* \"#utility.yul\":2213:2219   */\n      dup2\n        /* \"#utility.yul\":2210:2240   */\n      gt\n        /* \"#utility.yul\":2207:2324   */\n      iszero\n      tag_83\n      jumpi\n        /* \"#utility.yul\":2243:2322   */\n      tag_84\n      tag_39\n      jump\t// in\n    tag_84:\n        /* \"#utility.yul\":2207:2324   */\n    tag_83:\n        /* \"#utility.yul\":2357:2361   */\n      0x20\n        /* \"#utility.yul\":2349:2355   */\n      dup4\n        /* \"#utility.yul\":2345:2362   */\n      add\n        /* \"#utility.yul\":2333:2362   */\n      swap2\n      pop\n        /* \"#utility.yul\":2411:2414   */\n      dup4\n        /* \"#utility.yul\":2403:2407   */\n      0x01\n        /* \"#utility.yul\":2395:2401   */\n      dup3\n        /* \"#utility.yul\":2391:2408   */\n      mul\n        /* \"#utility.yul\":2381:2389   */\n      dup4\n        /* \"#utility.yul\":2377:2409   */\n      add\n        /* \"#utility.yul\":2374:2415   */\n      gt\n        /* \"#utility.yul\":2371:2499   */\n      iszero\n      tag_85\n      jumpi\n        /* \"#utility.yul\":2418:2497   */\n      tag_86\n      tag_40\n      jump\t// in\n    tag_86:\n        /* \"#utility.yul\":2371:2499   */\n    tag_85:\n        /* \"#utility.yul\":1952:2505   */\n      swap3\n      pop\n      swap3\n      swap1\n      pop\n      jump\t// out\n        /* \"#utility.yul\":2511:3040   */\n    tag_12:\n        /* \"#utility.yul\":2582:2588   */\n      0x00\n        /* \"#utility.yul\":2590:2596   */\n      dup1\n        /* \"#utility.yul\":2639:2641   */\n      0x20\n        /* \"#utility.yul\":2627:2636   */\n      dup4\n        /* \"#utility.yul\":2618:2625   */\n      dup6\n        /* \"#utility.yul\":2614:2637   */\n      sub\n        /* \"#utility.yul\":2610:2642   */\n      slt\n        /* \"#utility.yul\":2607:2726   */\n      iszero\n      tag_88\n      jumpi\n        /* \"#utility.yul\":2645:2724   */\n      tag_89\n      tag_36\n      jump\t// in\n    tag_89:\n        /* \"#utility.yul\":2607:2726   */\n    tag_88:\n        /* \"#utility.yul\":2793:2794   */\n      0x00\n        /* \"#utility.yul\":2782:2791   */\n      dup4\n        /* \"#utility.yul\":2778:2795   */\n      add\n        /* \"#utility.yul\":2765:2796   */\n      calldataload\n        /* \"#utility.yul\":2823:2841   */\n      0xffffffffffffffff\n        /* \"#utility.yul\":2815:2821   */\n      dup2\n        /* \"#utility.yul\":2812:2842   */\n      gt\n        /* \"#utility.yul\":2809:2926   */\n      iszero\n      tag_90\n      jumpi\n        /* \"#utility.yul\":2845:2924   */\n      tag_91\n      tag_37\n      jump\t// in\n    tag_91:\n        /* \"#utility.yul\":2809:2926   */\n    tag_90:\n        /* \"#utility.yul\":2958:3023   */\n      tag_92\n        /* \"#utility.yul\":3015:3022   */\n      dup6\n        /* \"#utility.yul\":3006:3012   */\n      dup3\n        /* \"#utility.yul\":2995:3004   */\n      dup7\n        /* \"#utility.yul\":2991:3013   */\n      add\n        /* \"#utility.yul\":2958:3023   */\n      tag_41\n      jump\t// in\n    tag_92:\n        /* \"#utility.yul\":2940:3023   */\n      swap3\n      pop\n      swap3\n      pop\n        /* \"#utility.yul\":2736:3033   */\n      pop\n        /* \"#utility.yul\":2511:3040   */\n      swap3\n      pop\n      swap3\n      swap1\n      pop\n      jump\t// out\n        /* \"#utility.yul\":3046:3123   */\n    tag_42:\n        /* \"#utility.yul\":3083:3090   */\n      0x00\n        /* \"#utility.yul\":3112:3117   */\n      dup2\n        /* \"#utility.yul\":3101:3117   */\n      swap1\n      pop\n        /* \"#utility.yul\":3046:3123   */\n      swap2\n      swap1\n      pop\n      jump\t// out\n        /* \"#utility.yul\":3129:3247   */\n    tag_43:\n        /* \"#utility.yul\":3216:3240   */\n      tag_95\n        /* \"#utility.yul\":3234:3239   */\n      dup2\n        /* \"#utility.yul\":3216:3240   */\n      tag_42\n      jump\t// in\n    tag_95:\n        /* \"#utility.yul\":3211:3214   */\n      dup3\n        /* \"#utility.yul\":3204:3241   */\n      mstore\n        /* \"#utility.yul\":3129:3247   */\n      pop\n      pop\n      jump\t// out\n        /* \"#utility.yul\":3253:3475   */\n    tag_17:\n        /* \"#utility.yul\":3346:3350   */\n      0x00\n        /* \"#utility.yul\":3384:3386   */\n      0x20\n        /* \"#utility.yul\":3373:3382   */\n      dup3\n        /* \"#utility.yul\":3369:3387   */\n      add\n        /* \"#utility.yul\":3361:3387   */\n      swap1\n      pop\n        /* \"#utility.yul\":3397:3468   */\n      tag_97\n        /* \"#utility.yul\":3465:3466   */\n      0x00\n        /* \"#utility.yul\":3454:3463   */\n      dup4\n        /* \"#utility.yul\":3450:3467   */\n      add\n        /* \"#utility.yul\":3441:3447   */\n      dup5\n        /* \"#utility.yul\":3397:3468   */\n      tag_43\n      jump\t// in\n    tag_97:\n        /* \"#utility.yul\":3253:3475   */\n      swap3\n      swap2\n      pop\n      pop\n      jump\t// out\n        /* \"#utility.yul\":3481:3661   */\n    tag_44:\n        /* \"#utility.yul\":3529:3606   */\n      0x4e487b7100000000000000000000000000000000000000000000000000000000\n        /* \"#utility.yul\":3526:3527   */\n      0x00\n        /* \"#utility.yul\":3519:3607   */\n      mstore\n        /* \"#utility.yul\":3626:3630   */\n      0x22\n        /* \"#utility.yul\":3623:3624   */\n      0x04\n        /* \"#utility.yul\":3616:3631   */\n      mstore\n        /* \"#utility.yul\":3650:3654   */\n      0x24\n        /* \"#utility.yul\":3647:3648   */\n      0x00\n        /* \"#utility.yul\":3640:3655   */\n      revert\n        /* \"#utility.yul\":3667:3987   */\n    tag_20:\n        /* \"#utility.yul\":3711:3717   */\n      0x00\n        /* \"#utility.yul\":3748:3749   */\n      0x02\n        /* \"#utility.yul\":3742:3746   */\n      dup3\n        /* \"#utility.yul\":3738:3750   */\n      div\n        /* \"#utility.yul\":3728:3750   */\n      swap1\n      pop\n        /* \"#utility.yul\":3795:3796   */\n      0x01\n        /* \"#utility.yul\":3789:3793   */\n      dup3\n        /* \"#utility.yul\":3785:3797   */\n      and\n        /* \"#utility.yul\":3816:3834   */\n      dup1\n        /* \"#utility.yul\":3806:3887   */\n      tag_100\n      jumpi\n        /* \"#utility.yul\":3872:3876   */\n      0x7f\n        /* \"#utility.yul\":3864:3870   */\n      dup3\n        /* \"#utility.yul\":3860:3877   */\n      and\n        /* \"#utility.yul\":3850:3877   */\n      swap2\n      pop\n        /* \"#utility.yul\":3806:3887   */\n    tag_100:\n        /* \"#utility.yul\":3934:3936   */\n      0x20\n        /* \"#utility.yul\":3926:3932   */\n      dup3\n        /* \"#utility.yul\":3923:3937   */\n      lt\n        /* \"#utility.yul\":3903:3921   */\n      dup2\n        /* \"#utility.yul\":3900:3938   */\n      sub\n        /* \"#utility.yul\":3897:3981   */\n      tag_101\n      jumpi\n        /* \"#utility.yul\":3953:3971   */\n      tag_102\n      tag_44\n      jump\t// in\n    tag_102:\n        /* \"#utility.yul\":3897:3981   */\n    tag_101:\n        /* \"#utility.yul\":3718:3987   */\n      pop\n        /* \"#utility.yul\":3667:3987   */\n      swap2\n      swap1\n      pop\n      jump\t// out\n        /* \"#utility.yul\":3993:4090   */\n    tag_45:\n        /* \"#utility.yul\":4052:4058   */\n      0x00\n        /* \"#utility.yul\":4080:4083   */\n      dup3\n        /* \"#utility.yul\":4070:4083   */\n      swap1\n      pop\n        /* \"#utility.yul\":3993:4090   */\n      swap3\n      swap2\n      pop\n      pop\n      jump\t// out\n        /* \"#utility.yul\":4096:4276   */\n    tag_46:\n        /* \"#utility.yul\":4144:4221   */\n      0x4e487b7100000000000000000000000000000000000000000000000000000000\n        /* \"#utility.yul\":4141:4142   */\n      0x00\n        /* \"#utility.yul\":4134:4222   */\n      mstore\n        /* \"#utility.yul\":4241:4245   */\n      0x41\n        /* \"#utility.yul\":4238:4239   */\n      0x04\n        /* \"#utility.yul\":4231:4246   */\n      mstore\n        /* \"#utility.yul\":4265:4269   */\n      0x24\n        /* \"#utility.yul\":4262:4263   */\n      0x00\n        /* \"#utility.yul\":4255:4270   */\n      revert\n        /* \"#utility.yul\":4282:4423   */\n    tag_47:\n        /* \"#utility.yul\":4331:4335   */\n      0x00\n        /* \"#utility.yul\":4354:4357   */\n      dup2\n        /* \"#utility.yul\":4346:4357   */\n      swap1\n      pop\n        /* \"#utility.yul\":4377:4380   */\n      dup2\n        /* \"#utility.yul\":4374:4375   */\n      0x00\n        /* \"#utility.yul\":4367:4381   */\n      mstore\n        /* \"#utility.yul\":4411:4415   */\n      0x20\n        /* \"#utility.yul\":4408:4409   */\n      0x00\n        /* \"#utility.yul\":4398:4416   */\n      keccak256\n        /* \"#utility.yul\":4390:4416   */\n      swap1\n      pop\n        /* \"#utility.yul\":4282:4423   */\n      swap2\n      swap1\n      pop\n      jump\t// out\n        /* \"#utility.yul\":4429:4522   */\n    tag_48:\n        /* \"#utility.yul\":4466:4472   */\n      0x00\n        /* \"#utility.yul\":4513:4515   */\n      0x20\n        /* \"#utility.yul\":4508:4510   */\n      0x1f\n        /* \"#utility.yul\":4501:4506   */\n      dup4\n        /* \"#utility.yul\":4497:4511   */\n      add\n        /* \"#utility.yul\":4493:4516   */\n      div\n        /* \"#utility.yul\":4483:4516   */\n      swap1\n      pop\n        /* \"#utility.yul\":4429:4522   */\n      swap2\n      swap1\n      pop\n      jump\t// out\n        /* \"#utility.yul\":4528:4635   */\n    tag_49:\n        /* \"#utility.yul\":4572:4580   */\n      0x00\n        /* \"#utility.yul\":4622:4627   */\n      dup3\n        /* \"#utility.yul\":4616:4620   */\n      dup3\n        /* \"#utility.yul\":4612:4628   */\n      shl\n        /* \"#utility.yul\":4591:4628   */\n      swap1\n      pop\n        /* \"#utility.yul\":4528:4635   */\n      swap3\n      swap2\n      pop\n      pop\n      jump\t// out\n        /* \"#utility.yul\":4641:5034   */\n    tag_50:\n        /* \"#utility.yul\":4710:4716   */\n      0x00\n        /* \"#utility.yul\":4760:4761   */\n      0x08\n        /* \"#utility.yul\":4748:4758   */\n      dup4\n        /* \"#utility.yul\":4744:4762   */\n      mul\n        /* \"#utility.yul\":4783:4880   */\n      tag_109\n        /* \"#utility.yul\":4813:4879   */\n      0xffffffffffffffffffffffffffffffffffffffffffffffffffffffffffffffff\n        /* \"#utility.yul\":4802:4811   */\n      dup3\n        /* \"#utility.yul\":4783:4880   */\n      tag_49\n      jump\t// in\n    tag_109:\n        /* \"#utility.yul\":4901:4940   */\n      tag_110\n        /* \"#utility.yul\":4931:4939   */\n      dup7\n        /* \"#utility.yul\":4920:4929   */\n      dup4\n        /* \"#utility.yul\":4901:4940   */\n      tag_49\n      jump\t// in\n    tag_110:\n        /* \"#utility.yul\":4889:4940   */\n      swap6\n      pop\n        /* \"#utility.yul\":4973:4977   */\n      dup1\n        /* \"#utility.yul\":4969:4978   */\n      not\n        /* \"#utility.yul\":4962:4967   */\n      dup5\n        /* \"#utility.yul\":4958:4979   */\n      and\n        /* \"#utility.yul\":4949:4979   */\n      swap4\n      pop\n        /* \"#utility.yul\":5022:5026   */\n      dup1\n        /* \"#utility.yul\":5012:5020   */\n      dup7\n        /* \"#utility.yul\":5008:5027   */\n      and\n        /* \"#utility.yul\":5001:5006   */\n      dup5\n        /* \"#utility.yul\":4998:5028   */\n      or\n        /* \"#utility.yul\":4988:5028   */\n      swap3\n      pop\n        /* \"#utility.yul\":4717:5034   */\n      pop\n      pop\n        /* \"#utility.yul\":4641:5034   */\n      swap4\n      swap3\n      pop\n      pop\n      pop\n      jump\t// out\n        /* \"#utility.yul\":5040:5100   */\n    tag_51:\n        /* \"#utility.yul\":5068:5071   */\n      0x00\n        /* \"#utility.yul\":5089:5094   */\n      dup2\n        /* \"#utility.yul\":5082:5094   */\n      swap1\n      pop\n        /* \"#utility.yul\":5040:5100   */\n      swap2\n      swap1\n      pop\n      jump\t// out\n        /* \"#utility.yul\":5106:5248   */\n    tag_52:\n        /* \"#utility.yul\":5156:5165   */\n      0x00\n        /* \"#utility.yul\":5189:5242   */\n      tag_113\n        /* \"#utility.yul\":5207:5241   */\n      tag_114\n        /* \"#utility.yul\":5216:5240   */\n      tag_115\n        /* \"#utility.yul\":5234:5239   */\n      dup5\n        /* \"#utility.yul\":5216:5240   */\n      tag_42\n      jump\t// in\n    tag_115:\n        /* \"#utility.yul\":5207:5241   */\n      tag_51\n      jump\t// in\n    tag_114:\n        /* \"#utility.yul\":5189:5242   */\n      tag_42\n      jump\t// in\n    tag_113:\n        /* \"#utility.yul\":5176:5242   */\n      swap1\n      pop\n        /* \"#utility.yul\":5106:5248   */\n      swap2\n      swap1\n      pop\n      jump\t// out\n        /* \"#utility.yul\":5254:5329   */\n    tag_53:\n        /* \"#utility.yul\":5297:5300   */\n      0x00\n        /* \"#utility.yul\":5318:5323   */\n      dup2\n        /* \"#utility.yul\":5311:5323   */\n      swap1\n      pop\n        /* \"#utility.yul\":5254:5329   */\n      swap2\n      swap1\n      pop\n      jump\t// out\n        /* \"#utility.yul\":5335:5604   */\n    tag_54:\n        /* \"#utility.yul\":5445:5484   */\n      tag_118\n        /* \"#utility.yul\":5476:5483   */\n      dup4\n        /* \"#utility.yul\":5445:5484   */\n      tag_52\n      jump\t// in\n    tag_118:\n        /* \"#utility.yul\":5506:5597   */\n      tag_119\n        /* \"#utility.yul\":5555:5596   */\n      tag_120\n        /* \"#utility.yul\":5579:5595   */\n      dup3\n        /* \"#utility.yul\":5555:5596   */\n      tag_53\n      jump\t// in\n    tag_120:\n        /* \"#utility.yul\":5547:5553   */\n      dup5\n        /* \"#utility.yul\":5540:5544   */\n      dup5\n        /* \"#utility.yul\":5534:5545   */\n      sload\n        /* \"#utility.yul\":5506:5597   */\n      tag_50\n      jump\t// in\n    tag_119:\n        /* \"#utility.yul\":5500:5504   */\n      dup3\n        /* \"#utility.yul\":5493:5598   */\n      sstore\n        /* \"#utility.yul\":5411:5604   */\n      pop\n        /* \"#utility.yul\":5335:5604   */\n      pop\n      pop\n      pop\n      jump\t// out\n        /* \"#utility.yul\":5610:5683   */\n    tag_55:\n        /* \"#utility.yul\":5655:5658   */\n      0x00\n        /* \"#utility.yul\":5610:5683   */\n      swap1\n      jump\t// out\n        /* \"#utility.yul\":5689:5878   */\n    tag_56:\n        /* \"#utility.yul\":5766:5798   */\n      tag_123\n      tag_55\n      jump\t// in\n    tag_123:\n        /* \"#utility.yul\":5807:5872   */\n      tag_124\n        /* \"#utility.yul\":5865:5871   */\n      dup2\n        /* \"#utility.yul\":5857:5863   */\n      dup5\n        /* \"#utility.yul\":5851:5855   */\n      dup5\n        /* \"#utility.yul\":5807:5872   */\n      tag_54\n      jump\t// in\n    tag_124:\n        /* \"#utility.yul\":5742:5878   */\n      pop\n        /* \"#utility.yul\":5689:5878   */\n      pop\n      pop\n      jump\t// out\n        /* \"#utility.yul\":5884:6070   */\n    tag_57:\n        /* \"#utility.yul\":5944:6064   */\n    tag_126:\n        /* \"#utility.yul\":5961:5964   */\n      dup2\n        /* \"#utility.yul\":5954:5959   */\n      dup2\n        /* \"#utility.yul\":5951:5965   */\n      lt\n        /* \"#utility.yul\":5944:6064   */\n      iszero\n      tag_128\n      jumpi\n        /* \"#utility.yul\":6015:6054   */\n      tag_129\n        /* \"#utility.yul\":6052:6053   */\n      0x00\n        /* \"#utility.yul\":6045:6050   */\n      dup3\n        /* \"#utility.yul\":6015:6054   */\n      tag_56\n      jump\t// in\n    tag_129:\n        /* \"#utility.yul\":5988:5989   */\n      0x01\n        /* \"#utility.yul\":5981:5986   */\n      dup2\n        /* \"#utility.yul\":5977:5990   */\n      add\n        /* \"#utility.yul\":5968:5990   */\n      swap1\n      pop\n        /* \"#utility.yul\":5944:6064   */\n      jump(tag_126)\n    tag_128:\n        /* \"#utility.yul\":5884:6070   */\n      pop\n      pop\n      jump\t// out\n        /* \"#utility.yul\":6076:6619   */\n    tag_58:\n        /* \"#utility.yul\":6177:6179   */\n      0x1f\n        /* \"#utility.yul\":6172:6175   */\n      dup3\n        /* \"#utility.yul\":6169:6180   */\n      gt\n        /* \"#utility.yul\":6166:6612   */\n      iszero\n      tag_131\n      jumpi\n        /* \"#utility.yul\":6211:6249   */\n      tag_132\n        /* \"#utility.yul\":6243:6248   */\n      dup2\n        /* \"#utility.yul\":6211:6249   */\n      tag_47\n      jump\t// in\n    tag_132:\n        /* \"#utility.yul\":6295:6324   */\n      tag_133\n        /* \"#utility.yul\":6313:6323   */\n      dup5\n        /* \"#utility.yul\":6295:6324   */\n      tag_48\n      jump\t// in\n    tag_133:\n        /* \"#utility.yul\":6285:6293   */\n      dup2\n        /* \"#utility.yul\":6281:6325   */\n      add\n        /* \"#utility.yul\":6478:6480   */\n      0x20\n        /* \"#utility.yul\":6466:6476   */\n      dup6\n        /* \"#utility.yul\":6463:6481   */\n      lt\n        /* \"#utility.yul\":6460:6509   */\n      iszero\n      tag_134\n      jumpi\n        /* \"#utility.yul\":6499:6507   */\n      dup2\n        /* \"#utility.yul\":6484:6507   */\n      swap1\n      pop\n        /* \"#utility.yul\":6460:6509   */\n    tag_134:\n        /* \"#utility.yul\":6522:6602   */\n      tag_135\n        /* \"#utility.yul\":6578:6600   */\n      tag_136\n        /* \"#utility.yul\":6596:6599   */\n      dup6\n        /* \"#utility.yul\":6578:6600   */\n      tag_48\n      jump\t// in\n    tag_136:\n        /* \"#utility.yul\":6568:6576   */\n      dup4\n        /* \"#utility.yul\":6564:6601   */\n      add\n        /* \"#utility.yul\":6551:6562   */\n      dup3\n        /* \"#utility.yul\":6522:6602   */\n      tag_57\n      jump\t// in\n    tag_135:\n        /* \"#utility.yul\":6181:6612   */\n      pop\n      pop\n        /* \"#utility.yul\":6166:6612   */\n    tag_131:\n        /* \"#utility.yul\":6076:6619   */\n      pop\n      pop\n      pop\n      jump\t// out\n        /* \"#utility.yul\":6625:6742   */\n    tag_59:\n        /* \"#utility.yul\":6679:6687   */\n      0x00\n        /* \"#utility.yul\":6729:6734   */\n      dup3\n        /* \"#utility.yul\":6723:6727   */\n      dup3\n        /* \"#utility.yul\":6719:6735   */\n      shr\n        /* \"#utility.yul\":6698:6735   */\n      swap1\n      pop\n        /* \"#utility.yul\":6625:6742   */\n      swap3\n      swap2\n      pop\n      pop\n      jump\t// out\n        /* \"#utility.yul\":6748:6917   */\n    tag_60:\n        /* \"#utility.yul\":6792:6798   */\n      0x00\n        /* \"#utility.yul\":6825:6876   */\n      tag_139\n        /* \"#utility.yul\":6873:6874   */\n      0x00\n        /* \"#utility.yul\":6869:6875   */\n      not\n        /* \"#utility.yul\":6861:6866   */\n      dup5\n        /* \"#utility.yul\":6858:6859   */\n      0x08\n        /* \"#utility.yul\":6854:6867   */\n      mul\n        /* \"#utility.yul\":6825:6876   */\n      tag_59\n      jump\t// in\n    tag_139:\n        /* \"#utility.yul\":6821:6877   */\n      not\n        /* \"#utility.yul\":6906:6910   */\n      dup1\n        /* \"#utility.yul\":6900:6904   */\n      dup4\n        /* \"#utility.yul\":6896:6911   */\n      and\n        /* \"#utility.yul\":6886:6911   */\n      swap2\n      pop\n        /* \"#utility.yul\":6799:6917   */\n      pop\n        /* \"#utility.yul\":6748:6917   */\n      swap3\n      swap2\n      pop\n      pop\n      jump\t// out\n        /* \"#utility.yul\":6922:7217   */\n    tag_61:\n        /* \"#utility.yul\":6998:7002   */\n      0x00\n        /* \"#utility.yul\":7144:7173   */\n      tag_141\n        /* \"#utility.yul\":7169:7172   */\n      dup4\n        /* \"#utility.yul\":7163:7167   */\n      dup4\n        /* \"#utility.yul\":7144:7173   */\n      tag_60\n      jump\t// in\n    tag_141:\n        /* \"#utility.yul\":7136:7173   */\n      swap2\n      pop\n        /* \"#utility.yul\":7206:7209   */\n      dup3\n        /* \"#utility.yul\":7203:7204   */\n      0x02\n        /* \"#utility.yul\":7199:7210   */\n      mul\n        /* \"#utility.yul\":7193:7197   */\n      dup3\n        /* \"#utility.yul\":7190:7211   */\n      or\n        /* \"#utility.yul\":7182:7211   */\n      swap1\n      pop\n        /* \"#utility.yul\":6922:7217   */\n      swap3\n      swap2\n      pop\n      pop\n      jump\t// out\n        /* \"#utility.yul\":7222:8625   */\n    tag_27:\n        /* \"#utility.yul\":7346:7390   */\n      tag_143\n        /* \"#utility.yul\":7386:7389   */\n      dup4\n        /* \"#utility.yul\":7381:7384   */\n      dup4\n        /* \"#utility.yul\":7346:7390   */\n      tag_45\n      jump\t// in\n    tag_143:\n        /* \"#utility.yul\":7455:7473   */\n      0xffffffffffffffff\n        /* \"#utility.yul\":7447:7453   */\n      dup2\n        /* \"#utility.yul\":7444:7474   */\n      gt\n        /* \"#utility.yul\":7441:7497   */\n      iszero\n      tag_144\n      jumpi\n        /* \"#utility.yul\":7477:7495   */\n      tag_145\n      tag_46\n      jump\t// in\n    tag_145:\n        /* \"#utility.yul\":7441:7497   */\n    tag_144:\n        /* \"#utility.yul\":7521:7559   */\n      tag_146\n        /* \"#utility.yul\":7553:7557   */\n      dup3\n        /* \"#utility.yul\":7547:7558   */\n      sload\n        /* \"#utility.yul\":7521:7559   */\n      tag_20\n      jump\t// in\n    tag_146:\n        /* \"#utility.yul\":7606:7673   */\n      tag_147\n        /* \"#utility.yul\":7666:7672   */\n      dup3\n        /* \"#utility.yul\":7658:7664   */\n      dup3\n        /* \"#utility.yul\":7652:7656   */\n      dup6\n        /* \"#utility.yul\":7606:7673   */\n      tag_58\n      jump\t// in\n    tag_147:\n        /* \"#utility.yul\":7700:7701   */\n      0x00\n        /* \"#utility.yul\":7729:7731   */\n      0x1f\n        /* \"#utility.yul\":7721:7727   */\n      dup4\n        /* \"#utility.yul\":7718:7732   */\n      gt\n        /* \"#utility.yul\":7746:7747   */\n      0x01\n        /* \"#utility.yul\":7741:8373   */\n      dup2\n      eq\n      tag_149\n      jumpi\n        /* \"#utility.yul\":8417:8418   */\n      0x00\n        /* \"#utility.yul\":8434:8440   */\n      dup5\n        /* \"#utility.yul\":8431:8515   */\n      iszero\n      tag_150\n      jumpi\n        /* \"#utility.yul\":8490:8499   */\n      dup3\n        /* \"#utility.yul\":8485:8488   */\n      dup8\n        /* \"#utility.yul\":8481:8500   */\n      add\n        /* \"#utility.yul\":8468:8501   */\n      calldataload\n        /* \"#utility.yul\":8459:8501   */\n      swap1\n      pop\n        /* \"#utility.yul\":8431:8515   */\n    tag_150:\n        /* \"#utility.yul\":8541:8608   */\n      tag_151\n        /* \"#utility.yul\":8601:8607   */\n      dup6\n        /* \"#utility.yul\":8594:8599   */\n      dup3\n        /* \"#utility.yul\":8541:8608   */\n      tag_61\n      jump\t// in\n    tag_151:\n        /* \"#utility.yul\":8535:8539   */\n      dup7\n        /* \"#utility.yul\":8528:8609   */\n      sstore\n        /* \"#utility.yul\":8390:8619   */\n      pop\n        /* \"#utility.yul\":7711:8619   */\n      jump(tag_148)\n        /* \"#utility.yul\":7741:8373   */\n    tag_149:\n        /* \"#utility.yul\":7793:7797   */\n      0x1f\n        /* \"#utility.yul\":7789:7798   */\n      not\n        /* \"#utility.yul\":7781:7787   */\n      dup5\n        /* \"#utility.yul\":7777:7799   */\n      and\n        /* \"#utility.yul\":7827:7864   */\n      tag_152\n        /* \"#utility.yul\":7859:7863   */\n      dup7\n        /* \"#utility.yul\":7827:7864   */\n      tag_47\n      jump\t// in\n    tag_152:\n        /* \"#utility.yul\":7886:7887   */\n      0x00\n        /* \"#utility.yul\":7900:8115   */\n    tag_153:\n        /* \"#utility.yul\":7914:7921   */\n      dup3\n        /* \"#utility.yul\":7911:7912   */\n      dup2\n        /* \"#utility.yul\":7908:7922   */\n      lt\n        /* \"#utility.yul\":7900:8115   */\n      iszero\n      tag_155\n      jumpi\n        /* \"#utility.yul\":8000:8009   */\n      dup5\n        /* \"#utility.yul\":7995:7998   */\n      dup10\n        /* \"#utility.yul\":7991:8010   */\n      add\n        /* \"#utility.yul\":7978:8011   */\n      calldataload\n        /* \"#utility.yul\":7970:7976   */\n      dup3\n        /* \"#utility.yul\":7963:8012   */\n      sstore\n        /* \"#utility.yul\":8051:8052   */\n      0x01\n        /* \"#utility.yul\":8043:8049   */\n      dup3\n        /* \"#utility.yul\":8039:8053   */\n      add\n        /* \"#utility.yul\":8029:8053   */\n      swap2\n      pop\n        /* \"#utility.yul\":8098:8100   */\n      0x20\n        /* \"#utility.yul\":8087:8096   */\n      dup6\n        /* \"#utility.yul\":8083:8101   */\n      add\n        /* \"#utility.yul\":8070:8101   */\n      swap5\n      pop\n        /* \"#utility.yul\":7937:7941   */\n      0x20\n        /* \"#utility.yul\":7934:7935   */\n      dup2\n        /* \"#utility.yul\":7930:7942   */\n      add\n        /* \"#utility.yul\":7925:7942   */\n      swap1\n      pop\n        /* \"#utility.yul\":7900:8115   */\n      jump(tag_153)\n    tag_155:\n        /* \"#utility.yul\":8143:8149   */\n      dup7\n        /* \"#utility.yul\":8134:8141   */\n      dup4\n        /* \"#utility.yul\":8131:8150   */\n      lt\n        /* \"#utility.yul\":8128:8314   */\n      iszero\n      tag_156\n      jumpi\n        /* \"#utility.yul\":8208:8217   */\n      dup5\n        /* \"#utility.yul\":8203:8206   */\n      dup10\n        /* \"#utility.yul\":8199:8218   */\n      add\n        /* \"#utility.yul\":8186:8219   */\n      calldataload\n        /* \"#utility.yul\":8251:8299   */\n      tag_157\n        /* \"#utility.yul\":8293:8297   */\n      0x1f\n        /* \"#utility.yul\":8285:8291   */\n      dup10\n        /* \"#utility.yul\":8281:8298   */\n      and\n        /* \"#utility.yul\":8270:8279   */\n      dup3\n        /* \"#utility.yul\":8251:8299   */\n      tag_60\n      jump\t// in\n    tag_157:\n        /* \"#utility.yul\":8243:8249   */\n      dup4\n        /* \"#utility.yul\":8236:8300   */\n      sstore\n        /* \"#utility.yul\":8151:8314   */\n      pop\n        /* \"#utility.yul\":8128:8314   */\n    tag_156:\n        /* \"#utility.yul\":8360:8361   */\n      0x01\n        /* \"#utility.yul\":8356:8357   */\n      0x02\n        /* \"#utility.yul\":8348:8354   */\n      dup9\n        /* \"#utility.yul\":8344:8358   */\n      mul\n        /* \"#utility.yul\":8340:8362   */\n      add\n        /* \"#utility.yul\":8334:8338   */\n      dup9\n        /* \"#utility.yul\":8327:8363   */\n      sstore\n        /* \"#utility.yul\":7748:8373   */\n      pop\n      pop\n      pop\n        /* \"#utility.yul\":7711:8619   */\n    tag_148:\n      pop\n        /* \"#utility.yul\":7321:8625   */\n      pop\n      pop\n      pop\n        /* \"#utility.yul\":7222:8625   */\n      pop\n      pop\n      pop\n      jump\t// out\n\n    auxdata: 0xa2646970667358221220c2b8e4980537ab552bf1b71b9c500fc551ff89c77bd889ba886d4cc397bc495e64736f6c634300081a0033\n}\n",
				"bytecode": {
					"linkReferences": {},
					"object": "6080604052348015600e575f80fd5b506105fc8061001c5f395ff3fe608060405234801561000f575f80fd5b506004361061003f575f3560e01c8063031d5d0114610043578063469c811014610061578063be1c766b1461007d575b5f80fd5b61004b61009b565b60405161005891906101c3565b60405180910390f35b61007b6004803603810190610076919061024c565b61012a565b005b61008561013f565b60405161009291906102af565b60405180910390f35b60605f80546100a9906102f5565b80601f01602080910402602001604051908101604052809291908181526020018280546100d5906102f5565b80156101205780601f106100f757610100808354040283529160200191610120565b820191905f5260205f20905b81548152906001019060200180831161010357829003601f168201915b5050505050905090565b81815f918261013a9291906104f9565b505050565b5f80805461014c906102f5565b9050905090565b5f81519050919050565b5f82825260208201905092915050565b8281835e5f83830152505050565b5f601f19601f8301169050919050565b5f61019582610153565b61019f818561015d565b93506101af81856020860161016d565b6101b88161017b565b840191505092915050565b5f6020820190508181035f8301526101db818461018b565b905092915050565b5f80fd5b5f80fd5b5f80fd5b5f80fd5b5f80fd5b5f8083601f84011261020c5761020b6101eb565b5b8235905067ffffffffffffffff811115610229576102286101ef565b5b602083019150836001820283011115610245576102446101f3565b5b9250929050565b5f8060208385031215610262576102616101e3565b5b5f83013567ffffffffffffffff81111561027f5761027e6101e7565b5b61028b858286016101f7565b92509250509250929050565b5f819050919050565b6102a981610297565b82525050565b5f6020820190506102c25f8301846102a0565b92915050565b7f4e487b71000000000000000000000000000000000000000000000000000000005f52602260045260245ffd5b5f600282049050600182168061030c57607f821691505b60208210810361031f5761031e6102c8565b5b50919050565b5f82905092915050565b7f4e487b71000000000000000000000000000000000000000000000000000000005f52604160045260245ffd5b5f819050815f5260205f209050919050565b5f6020601f8301049050919050565b5f82821b905092915050565b5f600883026103b87fffffffffffffffffffffffffffffffffffffffffffffffffffffffffffffffff8261037d565b6103c2868361037d565b95508019841693508086168417925050509392505050565b5f819050919050565b5f6103fd6103f86103f384610297565b6103da565b610297565b9050919050565b5f819050919050565b610416836103e3565b61042a61042282610404565b848454610389565b825550505050565b5f90565b61043e610432565b61044981848461040d565b505050565b5b8181101561046c576104615f82610436565b60018101905061044f565b5050565b601f8211156104b1576104828161035c565b61048b8461036e565b8101602085101561049a578190505b6104ae6104a68561036e565b83018261044e565b50505b505050565b5f82821c905092915050565b5f6104d15f19846008026104b6565b1980831691505092915050565b5f6104e983836104c2565b9150826002028217905092915050565b6105038383610325565b67ffffffffffffffff81111561051c5761051b61032f565b5b61052682546102f5565b610531828285610470565b5f601f83116001811461055e575f841561054c578287013590505b61055685826104de565b8655506105bd565b601f19841661056c8661035c565b5f5b828110156105935784890135825560018201915060208501945060208101905061056e565b868310156105b057848901356105ac601f8916826104c2565b8355505b6001600288020188555050505b5050505050505056fea2646970667358221220c2b8e4980537ab552bf1b71b9c500fc551ff89c77bd889ba886d4cc397bc495e64736f6c634300081a0033",
					"opcodes": "PUSH1 0x80 PUSH1 0x40 MSTORE CALLVALUE DUP1 ISZERO PUSH1 0xE JUMPI PUSH0 DUP1 REVERT JUMPDEST POP PUSH2 0x5FC DUP1 PUSH2 0x1C PUSH0 CODECOPY PUSH0 RETURN INVALID PUSH1 0x80 PUSH1 0x40 MSTORE CALLVALUE DUP1 ISZERO PUSH2 0xF JUMPI PUSH0 DUP1 REVERT JUMPDEST POP PUSH1 0x4 CALLDATASIZE LT PUSH2 0x3F JUMPI PUSH0 CALLDATALOAD PUSH1 0xE0 SHR DUP1 PUSH4 0x31D5D01 EQ PUSH2 0x43 JUMPI DUP1 PUSH4 0x469C8110 EQ PUSH2 0x61 JUMPI DUP1 PUSH4 0xBE1C766B EQ PUSH2 0x7D JUMPI JUMPDEST PUSH0 DUP1 REVERT JUMPDEST PUSH2 0x4B PUSH2 0x9B JUMP JUMPDEST PUSH1 0x40 MLOAD PUSH2 0x58 SWAP2 SWAP1 PUSH2 0x1C3 JUMP JUMPDEST PUSH1 0x40 MLOAD DUP1 SWAP2 SUB SWAP1 RETURN JUMPDEST PUSH2 0x7B PUSH1 0x4 DUP1 CALLDATASIZE SUB DUP2 ADD SWAP1 PUSH2 0x76 SWAP2 SWAP1 PUSH2 0x24C JUMP JUMPDEST PUSH2 0x12A JUMP JUMPDEST STOP JUMPDEST PUSH2 0x85 PUSH2 0x13F JUMP JUMPDEST PUSH1 0x40 MLOAD PUSH2 0x92 SWAP2 SWAP1 PUSH2 0x2AF JUMP JUMPDEST PUSH1 0x40 MLOAD DUP1 SWAP2 SUB SWAP1 RETURN JUMPDEST PUSH1 0x60 PUSH0 DUP1 SLOAD PUSH2 0xA9 SWAP1 PUSH2 0x2F5 JUMP JUMPDEST DUP1 PUSH1 0x1F ADD PUSH1 0x20 DUP1 SWAP2 DIV MUL PUSH1 0x20 ADD PUSH1 0x40 MLOAD SWAP1 DUP2 ADD PUSH1 0x40 MSTORE DUP1 SWAP3 SWAP2 SWAP1 DUP2 DUP2 MSTORE PUSH1 0x20 ADD DUP3 DUP1 SLOAD PUSH2 0xD5 SWAP1 PUSH2 0x2F5 JUMP JUMPDEST DUP1 ISZERO PUSH2 0x120 JUMPI DUP1 PUSH1 0x1F LT PUSH2 0xF7 JUMPI PUSH2 0x100 DUP1 DUP4 SLOAD DIV MUL DUP4 MSTORE SWAP2 PUSH1 0x20 ADD SWAP2 PUSH2 0x120 JUMP JUMPDEST DUP3 ADD SWAP2 SWAP1 PUSH0 MSTORE PUSH1 0x20 PUSH0 KECCAK256 SWAP1 JUMPDEST DUP2 SLOAD DUP2 MSTORE SWAP1 PUSH1 0x1 ADD SWAP1 PUSH1 0x20 ADD DUP1 DUP4 GT PUSH2 0x103 JUMPI DUP3 SWAP1 SUB PUSH1 0x1F AND DUP3 ADD SWAP2 JUMPDEST POP POP POP POP POP SWAP1 POP SWAP1 JUMP JUMPDEST DUP2 DUP2 PUSH0 SWAP2 DUP3 PUSH2 0x13A SWAP3 SWAP2 SWAP1 PUSH2 0x4F9 JUMP JUMPDEST POP POP POP JUMP JUMPDEST PUSH0 DUP1 DUP1 SLOAD PUSH2 0x14C SWAP1 PUSH2 0x2F5 JUMP JUMPDEST SWAP1 POP SWAP1 POP SWAP1 JUMP JUMPDEST PUSH0 DUP2 MLOAD SWAP1 POP SWAP2 SWAP1 POP JUMP JUMPDEST PUSH0 DUP3 DUP3 MSTORE PUSH1 0x20 DUP3 ADD SWAP1 POP SWAP3 SWAP2 POP POP JUMP JUMPDEST DUP3 DUP2 DUP4 MCOPY PUSH0 DUP4 DUP4 ADD MSTORE POP POP POP JUMP JUMPDEST PUSH0 PUSH1 0x1F NOT PUSH1 0x1F DUP4 ADD AND SWAP1 POP SWAP2 SWAP1 POP JUMP JUMPDEST PUSH0 PUSH2 0x195 DUP3 PUSH2 0x153 JUMP JUMPDEST PUSH2 0x19F DUP2 DUP6 PUSH2 0x15D JUMP JUMPDEST SWAP4 POP PUSH2 0x1AF DUP2 DUP6 PUSH1 0x20 DUP7 ADD PUSH2 0x16D JUMP JUMPDEST PUSH2 0x1B8 DUP2 PUSH2 0x17B JUMP JUMPDEST DUP5 ADD SWAP2 POP POP SWAP3 SWAP2 POP POP JUMP JUMPDEST PUSH0 PUSH1 0x20 DUP3 ADD SWAP1 POP DUP2 DUP2 SUB PUSH0 DUP4 ADD MSTORE PUSH2 0x1DB DUP2 DUP5 PUSH2 0x18B JUMP JUMPDEST SWAP1 POP SWAP3 SWAP2 POP POP JUMP JUMPDEST PUSH0 DUP1 REVERT JUMPDEST PUSH0 DUP1 REVERT JUMPDEST PUSH0 DUP1 REVERT JUMPDEST PUSH0 DUP1 REVERT JUMPDEST PUSH0 DUP1 REVERT JUMPDEST PUSH0 DUP1 DUP4 PUSH1 0x1F DUP5 ADD SLT PUSH2 0x20C JUMPI PUSH2 0x20B PUSH2 0x1EB JUMP JUMPDEST JUMPDEST DUP3 CALLDATALOAD SWAP1 POP PUSH8 0xFFFFFFFFFFFFFFFF DUP2 GT ISZERO PUSH2 0x229 JUMPI PUSH2 0x228 PUSH2 0x1EF JUMP JUMPDEST JUMPDEST PUSH1 0x20 DUP4 ADD SWAP2 POP DUP4 PUSH1 0x1 DUP3 MUL DUP4 ADD GT ISZERO PUSH2 0x245 JUMPI PUSH2 0x244 PUSH2 0x1F3 JUMP JUMPDEST JUMPDEST SWAP3 POP SWAP3 SWAP1 POP JUMP JUMPDEST PUSH0 DUP1 PUSH1 0x20 DUP4 DUP6 SUB SLT ISZERO PUSH2 0x262 JUMPI PUSH2 0x261 PUSH2 0x1E3 JUMP JUMPDEST JUMPDEST PUSH0 DUP4 ADD CALLDATALOAD PUSH8 0xFFFFFFFFFFFFFFFF DUP2 GT ISZERO PUSH2 0x27F JUMPI PUSH2 0x27E PUSH2 0x1E7 JUMP JUMPDEST JUMPDEST PUSH2 0x28B DUP6 DUP3 DUP7 ADD PUSH2 0x1F7 JUMP JUMPDEST SWAP3 POP SWAP3 POP POP SWAP3 POP SWAP3 SWAP1 POP JUMP JUMPDEST PUSH0 DUP2 SWAP1 POP SWAP2 SWAP1 POP JUMP JUMPDEST PUSH2 0x2A9 DUP2 PUSH2 0x297 JUMP JUMPDEST DUP3 MSTORE POP POP JUMP JUMPDEST PUSH0 PUSH1 0x20 DUP3 ADD SWAP1 POP PUSH2 0x2C2 PUSH0 DUP4 ADD DUP5 PUSH2 0x2A0 JUMP JUMPDEST SWAP3 SWAP2 POP POP JUMP JUMPDEST PUSH32 0x4E487B7100000000000000000000000000000000000000000000000000000000 PUSH0 MSTORE PUSH1 0x22 PUSH1 0x4 MSTORE PUSH1 0x24 PUSH0 REVERT JUMPDEST PUSH0 PUSH1 0x2 DUP3 DIV SWAP1 POP PUSH1 0x1 DUP3 AND DUP1 PUSH2 0x30C JUMPI PUSH1 0x7F DUP3 AND SWAP2 POP JUMPDEST PUSH1 0x20 DUP3 LT DUP2 SUB PUSH2 0x31F JUMPI PUSH2 0x31E PUSH2 0x2C8 JUMP JUMPDEST JUMPDEST POP SWAP2 SWAP1 POP JUMP JUMPDEST PUSH0 DUP3 SWAP1 POP SWAP3 SWAP2 POP POP JUMP JUMPDEST PUSH32 0x4E487B7100000000000000000000000000000000000000000000000000000000 PUSH0 MSTORE PUSH1 0x41 PUSH1 0x4 MSTORE PUSH1 0x24 PUSH0 REVERT JUMPDEST PUSH0 DUP2 SWAP1 POP DUP2 PUSH0 MSTORE PUSH1 0x20 PUSH0 KECCAK256 SWAP1 POP SWAP2 SWAP1 POP JUMP JUMPDEST PUSH0 PUSH1 0x20 PUSH1 0x1F DUP4 ADD DIV SWAP1 POP SWAP2 SWAP1 POP JUMP JUMPDEST PUSH0 DUP3 DUP3 SHL SWAP1 POP SWAP3 SWAP2 POP POP JUMP JUMPDEST PUSH0 PUSH1 0x8 DUP4 MUL PUSH2 0x3B8 PUSH32 0xFFFFFFFFFFFFFFFFFFFFFFFFFFFFFFFFFFFFFFFFFFFFFFFFFFFFFFFFFFFFFFFF DUP3 PUSH2 0x37D JUMP JUMPDEST PUSH2 0x3C2 DUP7 DUP4 PUSH2 0x37D JUMP JUMPDEST SWAP6 POP DUP1 NOT DUP5 AND SWAP4 POP DUP1 DUP7 AND DUP5 OR SWAP3 POP POP POP SWAP4 SWAP3 POP POP POP JUMP JUMPDEST PUSH0 DUP2 SWAP1 POP SWAP2 SWAP1 POP JUMP JUMPDEST PUSH0 PUSH2 0x3FD PUSH2 0x3F8 PUSH2 0x3F3 DUP5 PUSH2 0x297 JUMP JUMPDEST PUSH2 0x3DA JUMP JUMPDEST PUSH2 0x297 JUMP JUMPDEST SWAP1 POP SWAP2 SWAP1 POP JUMP JUMPDEST PUSH0 DUP2 SWAP1 POP SWAP2 SWAP1 POP JUMP JUMPDEST PUSH2 0x416 DUP4 PUSH2 0x3E3 JUMP JUMPDEST PUSH2 0x42A PUSH2 0x422 DUP3 PUSH2 0x404 JUMP JUMPDEST DUP5 DUP5 SLOAD PUSH2 0x389 JUMP JUMPDEST DUP3 SSTORE POP POP POP POP JUMP JUMPDEST PUSH0 SWAP1 JUMP JUMPDEST PUSH2 0x43E PUSH2 0x432 JUMP JUMPDEST PUSH2 0x449 DUP2 DUP5 DUP5 PUSH2 0x40D JUMP JUMPDEST POP POP POP JUMP JUMPDEST JUMPDEST DUP2 DUP2 LT ISZERO PUSH2 0x46C JUMPI PUSH2 0x461 PUSH0 DUP3 PUSH2 0x436 JUMP JUMPDEST PUSH1 0x1 DUP2 ADD SWAP1 POP PUSH2 0x44F JUMP JUMPDEST POP POP JUMP JUMPDEST PUSH1 0x1F DUP3 GT ISZERO PUSH2 0x4B1 JUMPI PUSH2 0x482 DUP2 PUSH2 0x35C JUMP JUMPDEST PUSH2 0x48B DUP5 PUSH2 0x36E JUMP JUMPDEST DUP2 ADD PUSH1 0x20 DUP6 LT ISZERO PUSH2 0x49A JUMPI DUP2 SWAP1 POP JUMPDEST PUSH2 0x4AE PUSH2 0x4A6 DUP6 PUSH2 0x36E JUMP JUMPDEST DUP4 ADD DUP3 PUSH2 0x44E JUMP JUMPDEST POP POP JUMPDEST POP POP POP JUMP JUMPDEST PUSH0 DUP3 DUP3 SHR SWAP1 POP SWAP3 SWAP2 POP POP JUMP JUMPDEST PUSH0 PUSH2 0x4D1 PUSH0 NOT DUP5 PUSH1 0x8 MUL PUSH2 0x4B6 JUMP JUMPDEST NOT DUP1 DUP4 AND SWAP2 POP POP SWAP3 SWAP2 POP POP JUMP JUMPDEST PUSH0 PUSH2 0x4E9 DUP4 DUP4 PUSH2 0x4C2 JUMP JUMPDEST SWAP2 POP DUP3 PUSH1 0x2 MUL DUP3 OR SWAP1 POP SWAP3 SWAP2 POP POP JUMP JUMPDEST PUSH2 0x503 DUP4 DUP4 PUSH2 0x325 JUMP JUMPDEST PUSH8 0xFFFFFFFFFFFFFFFF DUP2 GT ISZERO PUSH2 0x51C JUMPI PUSH2 0x51B PUSH2 0x32F JUMP JUMPDEST JUMPDEST PUSH2 0x526 DUP3 SLOAD PUSH2 0x2F5 JUMP JUMPDEST PUSH2 0x531 DUP3 DUP3 DUP6 PUSH2 0x470 JUMP JUMPDEST PUSH0 PUSH1 0x1F DUP4 GT PUSH1 0x1 DUP2 EQ PUSH2 0x55E JUMPI PUSH0 DUP5 ISZERO PUSH2 0x54C JUMPI DUP3 DUP8 ADD CALLDATALOAD SWAP1 POP JUMPDEST PUSH2 0x556 DUP6 DUP3 PUSH2 0x4DE JUMP JUMPDEST DUP7 SSTORE POP PUSH2 0x5BD JUMP JUMPDEST PUSH1 0x1F NOT DUP5 AND PUSH2 0x56C DUP7 PUSH2 0x35C JUMP JUMPDEST PUSH0 JUMPDEST DUP3 DUP2 LT ISZERO PUSH2 0x593 JUMPI DUP5 DUP10 ADD CALLDATALOAD DUP3 SSTORE PUSH1 0x1 DUP3 ADD SWAP2 POP PUSH1 0x20 DUP6 ADD SWAP5 POP PUSH1 0x20 DUP2 ADD SWAP1 POP PUSH2 0x56E JUMP JUMPDEST DUP7 DUP4 LT ISZERO PUSH2 0x5B0 JUMPI DUP5 DUP10 ADD CALLDATALOAD PUSH2 0x5AC PUSH1 0x1F DUP10 AND DUP3 PUSH2 0x4C2 JUMP JUMPDEST DUP4 SSTORE POP JUMPDEST PUSH1 0x1 PUSH1 0x2 DUP9 MUL ADD DUP9 SSTORE POP POP POP JUMPDEST POP POP POP POP POP POP POP JUMP INVALID LOG2 PUSH5 0x6970667358 0x22 SLT KECCAK256 0xC2 0xB8 0xE4 SWAP9 SDIV CALLDATACOPY 0xAB SSTORE 0x2B CALL 0xB7 SHL SWAP13 POP 0xF 0xC5 MLOAD SELFDESTRUCT DUP10 0xC7 PUSH28 0xD889BA886D4CC397BC495E64736F6C634300081A0033000000000000 "
				},
				"gasEstimates": {
					"creation": {
						"codeDepositCost": "306400",
						"executionCost": "341",
						"totalCost": "306741"
					},
					"external": {
						"getLength()": "2586",
						"readMessage()": "infinite",
						"sendMessage(string)": "infinite"
					}
				},
				"methodIdentifiers": {
					"getLength()": "be1c766b",
					"readMessage()": "031d5d01",
					"sendMessage(string)": "469c8110"
				}
			},
			"storageLayout": {
				"storage": [
					{
						"astId": 3,
						"contract": "messenger.sol:messenger",
						"label": "message",
						"offset": 0,
						"slot": "0",
						"type": "t_string_storage"
					}
				],
				"types": {
					"t_string_storage": {
						"encoding": "bytes",
						"label": "string",
						"numberOfBytes": "32"
					}
				}
			},
			"userdoc": {
				"kind": "user",
				"methods": {},
				"version": 1
			}
		}
	}
}