{
	"mathlib.sol": {
		"mathLib": {
			"abi": [
				{
					"inputs": [
						{
							"internalType": "uint256",
							"name": "a",
							"type": "uint256"
						},
						{
							"internalType": "uint256",
							"name": "b",
							"type": "uint256"
						}
					],
					"name": "add",
					"outputs": [
						{
							"internalType": "uint256",
							"name": "",
							"type": "uint256"
						}
					],
					"stateMutability": "pure",
					"type": "function"
				},
				{
					"inputs": [
						{
							"internalType": "uint256",
							"name": "a",
							"type": "uint256"
						},
						{
							"internalType": "uint256",
							"name": "b",
							"type": "uint256"
						}
					],
					"name": "hashPair",
					"outputs": [
						{
							"internalType": "bytes32",
							"name": "",
							"type": "bytes32"
						}
					],
					"stateMutability": "pure",
					"type": "function"
				},
				{
					"inputs": [
						{
							"internalType": "uint256",
							"name": "a",
							"type": "uint256"
						},
						{
							"internalType": "uint256",
							"name": "b",
							"type": "uint256"
						}
					],
					"name": "mul",
					"outputs": [
						{
							"internalType": "uint256",
							"name": "",
							"type": "uint256"
						}
					],
					"stateMutability": "pure",
					"type": "function"
				}
			],
			"devdoc": {
				"kind": "dev",
				"methods": {},
				"version": 1
			},
			"evm": {
				"assembly": "    /* \"mathlib.sol\":57:384  contract mathLib{... */\n  mstore(0x40, 0x80)\n  callvalue\n  dup1\n  iszero\n  tag_1\n  jumpi\n  0x00\n  dup1\n  revert\ntag_1:\n  pop\n  dataSize(sub_0)\n  dup1\n  dataOffset(sub_0)\n  0x00\n  codecopy\n  0x00\n  return\nstop\n\nsub_0: assembly {\n        /* \"mathlib.sol\":57:384  contract mathLib{... */\n      mstore(0x40, 0x80)\n      callvalue\n      dup1\n      iszero\n      tag_1\n      jumpi\n      0x00\n      dup1\n      revert\n    tag_1:\n      pop\n      jumpi(tag_2, lt(calldatasize, 0x04))\n      shr(0xe0, calldataload(0x00))\n      dup1\n      0x66d82b2b\n      eq\n      tag_3\n      jumpi\n      dup1\n      0x771602f7\n      eq\n      tag_4\n      jumpi\n      dup1\n      0xc8a4ac9c\n      eq\n      tag_5\n      jumpi\n    tag_2:\n      0x00\n      dup1\n      revert\n        /* \"mathlib.sol\":257:376  function hashPair(uint a, uint b) public pure returns (bytes32){... */\n    tag_3:\n      tag_6\n      0x04\n      dup1\n      calldatasize\n      sub\n      dup2\n      add\n      swap1\n      tag_7\n      swap2\n      swap1\n      tag_8\n      jump\t// in\n    tag_7:\n      tag_9\n      jump\t// in\n    tag_6:\n      mload(0x40)\n      tag_10\n      swap2\n      swap1\n      tag_11\n      jump\t// in\n    tag_10:\n      mload(0x40)\n      dup1\n      swap2\n      sub\n      swap1\n      return\n        /* \"mathlib.sol\":79:162  function add(uint a, uint b) public pure returns(uint){... */\n    tag_4:\n      tag_12\n      0x04\n      dup1\n      calldatasize\n      sub\n      dup2\n      add\n      swap1\n      tag_13\n      swap2\n      swap1\n      tag_8\n      jump\t// in\n    tag_13:\n      tag_14\n      jump\t// in\n    tag_12:\n      mload(0x40)\n      tag_15\n      swap2\n      swap1\n      tag_16\n      jump\t// in\n    tag_15:\n      mload(0x40)\n      dup1\n      swap2\n      sub\n      swap1\n      return\n        /* \"mathlib.sol\":168:251  function mul(uint a, uint b) public pure returns(uint){... */\n    tag_5:\n      tag_17\n      0x04\n      dup1\n      calldatasize\n      sub\n      dup2\n      add\n      swap1\n      tag_18\n      swap2\n      swap1\n      tag_8\n      jump\t// in\n    tag_18:\n      tag_19\n      jump\t// in\n    tag_17:\n      mload(0x40)\n      tag_20\n      swap2\n      swap1\n      tag_16\n      jump\t// in\n    tag_20:\n      mload(0x40)\n      dup1\n      swap2\n      sub\n      swap1\n      return\n        /* \"mathlib.sol\":257:376  function hashPair(uint a, uint b) public pure returns (bytes32){... */\n    tag_9:\n        /* \"mathlib.sol\":312:319  bytes32 */\n      0x00\n        /* \"mathlib.sol\":364:365  a */\n      dup3\n        /* \"mathlib.sol\":366:367  b */\n      dup3\n        /* \"mathlib.sol\":347:368  abi.encodePacked(a,b) */\n      add(0x20, mload(0x40))\n      tag_22\n      swap3\n      swap2\n      swap1\n      tag_23\n      jump\t// in\n    tag_22:\n      mload(0x40)\n      0x20\n      dup2\n      dup4\n      sub\n      sub\n      dup2\n      mstore\n      swap1\n      0x40\n      mstore\n        /* \"mathlib.sol\":337:369  keccak256(abi.encodePacked(a,b)) */\n      dup1\n      mload\n      swap1\n      0x20\n      add\n      keccak256\n        /* \"mathlib.sol\":330:369  return keccak256(abi.encodePacked(a,b)) */\n      swap1\n      pop\n        /* \"mathlib.sol\":257:376  function hashPair(uint a, uint b) public pure returns (bytes32){... */\n      swap3\n      swap2\n      pop\n      pop\n      jump\t// out\n        /* \"mathlib.sol\":79:162  function add(uint a, uint b) public pure returns(uint){... */\n    tag_14:\n        /* \"mathlib.sol\":128:132  uint */\n      0x00\n        /* \"mathlib.sol\":154:155  b */\n      dup2\n        /* \"mathlib.sol\":150:151  a */\n      dup4\n        /* \"mathlib.sol\":150:155  a + b */\n      tag_25\n      swap2\n      swap1\n      tag_26\n      jump\t// in\n    tag_25:\n        /* \"mathlib.sol\":143:155  return a + b */\n      swap1\n      pop\n        /* \"mathlib.sol\":79:162  function add(uint a, uint b) public pure returns(uint){... */\n      swap3\n      swap2\n      pop\n      pop\n      jump\t// out\n        /* \"mathlib.sol\":168:251  function mul(uint a, uint b) public pure returns(uint){... */\n    tag_19:\n        /* \"mathlib.sol\":217:221  uint */\n      0x00\n        /* \"mathlib.sol\":243:244  b */\n      dup2\n        /* \"mathlib.sol\":239:240  a */\n      dup4\n        /* \"mathlib.sol\":239:244  a * b */\n      tag_28\n      swap2\n      swap1\n      tag_29\n      jump\t// in\n    tag_28:\n        /* \"mathlib.sol\":232:244  return a * b */\n      swap1\n      pop\n        /* \"mathlib.sol\":168:251  function mul(uint a, uint b) public pure returns(uint){... */\n      swap3\n      swap2\n      pop\n      pop\n      jump\t// out\n        /* \"#utility.yul\":88:205   */\n    tag_31:\n        /* \"#utility.yul\":197:198   */\n      0x00\n        /* \"#utility.yul\":194:195   */\n      dup1\n        /* \"#utility.yul\":187:199   */\n      revert\n        /* \"#utility.yul\":334:411   */\n    tag_33:\n        /* \"#utility.yul\":371:378   */\n      0x00\n        /* \"#utility.yul\":400:405   */\n      dup2\n        /* \"#utility.yul\":389:405   */\n      swap1\n      pop\n        /* \"#utility.yul\":334:411   */\n      swap2\n      swap1\n      pop\n      jump\t// out\n        /* \"#utility.yul\":417:539   */\n    tag_34:\n        /* \"#utility.yul\":490:514   */\n      tag_48\n        /* \"#utility.yul\":508:513   */\n      dup2\n        /* \"#utility.yul\":490:514   */\n      tag_33\n      jump\t// in\n    tag_48:\n        /* \"#utility.yul\":483:488   */\n      dup2\n        /* \"#utility.yul\":480:515   */\n      eq\n        /* \"#utility.yul\":470:533   */\n      tag_49\n      jumpi\n        /* \"#utility.yul\":529:530   */\n      0x00\n        /* \"#utility.yul\":526:527   */\n      dup1\n        /* \"#utility.yul\":519:531   */\n      revert\n        /* \"#utility.yul\":470:533   */\n    tag_49:\n        /* \"#utility.yul\":417:539   */\n      pop\n      jump\t// out\n        /* \"#utility.yul\":545:684   */\n    tag_35:\n        /* \"#utility.yul\":591:596   */\n      0x00\n        /* \"#utility.yul\":629:635   */\n      dup2\n        /* \"#utility.yul\":616:636   */\n      calldataload\n        /* \"#utility.yul\":607:636   */\n      swap1\n      pop\n        /* \"#utility.yul\":645:678   */\n      tag_51\n        /* \"#utility.yul\":672:677   */\n      dup2\n        /* \"#utility.yul\":645:678   */\n      tag_34\n      jump\t// in\n    tag_51:\n        /* \"#utility.yul\":545:684   */\n      swap3\n      swap2\n      pop\n      pop\n      jump\t// out\n        /* \"#utility.yul\":690:1164   */\n    tag_8:\n        /* \"#utility.yul\":758:764   */\n      0x00\n        /* \"#utility.yul\":766:772   */\n      dup1\n        /* \"#utility.yul\":815:817   */\n      0x40\n        /* \"#utility.yul\":803:812   */\n      dup4\n        /* \"#utility.yul\":794:801   */\n      dup6\n        /* \"#utility.yul\":790:813   */\n      sub\n        /* \"#utility.yul\":786:818   */\n      slt\n        /* \"#utility.yul\":783:902   */\n      iszero\n      tag_53\n      jumpi\n        /* \"#utility.yul\":821:900   */\n      tag_54\n      tag_31\n      jump\t// in\n    tag_54:\n        /* \"#utility.yul\":783:902   */\n    tag_53:\n        /* \"#utility.yul\":941:942   */\n      0x00\n        /* \"#utility.yul\":966:1019   */\n      tag_55\n        /* \"#utility.yul\":1011:1018   */\n      dup6\n        /* \"#utility.yul\":1002:1008   */\n      dup3\n        /* \"#utility.yul\":991:1000   */\n      dup7\n        /* \"#utility.yul\":987:1009   */\n      add\n        /* \"#utility.yul\":966:1019   */\n      tag_35\n      jump\t// in\n    tag_55:\n        /* \"#utility.yul\":956:1019   */\n      swap3\n      pop\n        /* \"#utility.yul\":912:1029   */\n      pop\n        /* \"#utility.yul\":1068:1070   */\n      0x20\n        /* \"#utility.yul\":1094:1147   */\n      tag_56\n        /* \"#utility.yul\":1139:1146   */\n      dup6\n        /* \"#utility.yul\":1130:1136   */\n      dup3\n        /* \"#utility.yul\":1119:1128   */\n      dup7\n        /* \"#utility.yul\":1115:1137   */\n      add\n        /* \"#utility.yul\":1094:1147   */\n      tag_35\n      jump\t// in\n    tag_56:\n        /* \"#utility.yul\":1084:1147   */\n      swap2\n      pop\n        /* \"#utility.yul\":1039:1157   */\n      pop\n        /* \"#utility.yul\":690:1164   */\n      swap3\n      pop\n      swap3\n      swap1\n      pop\n      jump\t// out\n        /* \"#utility.yul\":1170:1247   */\n    tag_36:\n        /* \"#utility.yul\":1207:1214   */\n      0x00\n        /* \"#utility.yul\":1236:1241   */\n      dup2\n        /* \"#utility.yul\":1225:1241   */\n      swap1\n      pop\n        /* \"#utility.yul\":1170:1247   */\n      swap2\n      swap1\n      pop\n      jump\t// out\n        /* \"#utility.yul\":1253:1371   */\n    tag_37:\n        /* \"#utility.yul\":1340:1364   */\n      tag_59\n        /* \"#utility.yul\":1358:1363   */\n      dup2\n        /* \"#utility.yul\":1340:1364   */\n      tag_36\n      jump\t// in\n    tag_59:\n        /* \"#utility.yul\":1335:1338   */\n      dup3\n        /* \"#utility.yul\":1328:1365   */\n      mstore\n        /* \"#utility.yul\":1253:1371   */\n      pop\n      pop\n      jump\t// out\n        /* \"#utility.yul\":1377:1599   */\n    tag_11:\n        /* \"#utility.yul\":1470:1474   */\n      0x00\n        /* \"#utility.yul\":1508:1510   */\n      0x20\n        /* \"#utility.yul\":1497:1506   */\n      dup3\n        /* \"#utility.yul\":1493:1511   */\n      add\n        /* \"#utility.yul\":1485:1511   */\n      swap1\n      pop\n        /* \"#utility.yul\":1521:1592   */\n      tag_61\n        /* \"#utility.yul\":1589:1590   */\n      0x00\n        /* \"#utility.yul\":1578:1587   */\n      dup4\n        /* \"#utility.yul\":1574:1591   */\n      add\n        /* \"#utility.yul\":1565:1571   */\n      dup5\n        /* \"#utility.yul\":1521:1592   */\n      tag_37\n      jump\t// in\n    tag_61:\n        /* \"#utility.yul\":1377:1599   */\n      swap3\n      swap2\n      pop\n      pop\n      jump\t// out\n        /* \"#utility.yul\":1605:1723   */\n    tag_38:\n        /* \"#utility.yul\":1692:1716   */\n      tag_63\n        /* \"#utility.yul\":1710:1715   */\n      dup2\n        /* \"#utility.yul\":1692:1716   */\n      tag_33\n      jump\t// in\n    tag_63:\n        /* \"#utility.yul\":1687:1690   */\n      dup3\n        /* \"#utility.yul\":1680:1717   */\n      mstore\n        /* \"#utility.yul\":1605:1723   */\n      pop\n      pop\n      jump\t// out\n        /* \"#utility.yul\":1729:1951   */\n    tag_16:\n        /* \"#utility.yul\":1822:1826   */\n      0x00\n        /* \"#utility.yul\":1860:1862   */\n      0x20\n        /* \"#utility.yul\":1849:1858   */\n      dup3\n        /* \"#utility.yul\":1845:1863   */\n      add\n        /* \"#utility.yul\":1837:1863   */\n      swap1\n      pop\n        /* \"#utility.yul\":1873:1944   */\n      tag_65\n        /* \"#utility.yul\":1941:1942   */\n      0x00\n        /* \"#utility.yul\":1930:1939   */\n      dup4\n        /* \"#utility.yul\":1926:1943   */\n      add\n        /* \"#utility.yul\":1917:1923   */\n      dup5\n        /* \"#utility.yul\":1873:1944   */\n      tag_38\n      jump\t// in\n    tag_65:\n        /* \"#utility.yul\":1729:1951   */\n      swap3\n      swap2\n      pop\n      pop\n      jump\t// out\n        /* \"#utility.yul\":1957:2036   */\n    tag_39:\n        /* \"#utility.yul\":1996:2003   */\n      0x00\n        /* \"#utility.yul\":2025:2030   */\n      dup2\n        /* \"#utility.yul\":2014:2030   */\n      swap1\n      pop\n        /* \"#utility.yul\":1957:2036   */\n      swap2\n      swap1\n      pop\n      jump\t// out\n        /* \"#utility.yul\":2042:2199   */\n    tag_40:\n        /* \"#utility.yul\":2147:2192   */\n      tag_68\n        /* \"#utility.yul\":2167:2191   */\n      tag_69\n        /* \"#utility.yul\":2185:2190   */\n      dup3\n        /* \"#utility.yul\":2167:2191   */\n      tag_33\n      jump\t// in\n    tag_69:\n        /* \"#utility.yul\":2147:2192   */\n      tag_39\n      jump\t// in\n    tag_68:\n        /* \"#utility.yul\":2142:2145   */\n      dup3\n        /* \"#utility.yul\":2135:2193   */\n      mstore\n        /* \"#utility.yul\":2042:2199   */\n      pop\n      pop\n      jump\t// out\n        /* \"#utility.yul\":2205:2602   */\n    tag_23:\n        /* \"#utility.yul\":2345:2348   */\n      0x00\n        /* \"#utility.yul\":2360:2435   */\n      tag_71\n        /* \"#utility.yul\":2431:2434   */\n      dup3\n        /* \"#utility.yul\":2422:2428   */\n      dup6\n        /* \"#utility.yul\":2360:2435   */\n      tag_40\n      jump\t// in\n    tag_71:\n        /* \"#utility.yul\":2460:2462   */\n      0x20\n        /* \"#utility.yul\":2455:2458   */\n      dup3\n        /* \"#utility.yul\":2451:2463   */\n      add\n        /* \"#utility.yul\":2444:2463   */\n      swap2\n      pop\n        /* \"#utility.yul\":2473:2548   */\n      tag_72\n        /* \"#utility.yul\":2544:2547   */\n      dup3\n        /* \"#utility.yul\":2535:2541   */\n      dup5\n        /* \"#utility.yul\":2473:2548   */\n      tag_40\n      jump\t// in\n    tag_72:\n        /* \"#utility.yul\":2573:2575   */\n      0x20\n        /* \"#utility.yul\":2568:2571   */\n      dup3\n        /* \"#utility.yul\":2564:2576   */\n      add\n        /* \"#utility.yul\":2557:2576   */\n      swap2\n      pop\n        /* \"#utility.yul\":2593:2596   */\n      dup2\n        /* \"#utility.yul\":2586:2596   */\n      swap1\n      pop\n        /* \"#utility.yul\":2205:2602   */\n      swap4\n      swap3\n      pop\n      pop\n      pop\n      jump\t// out\n        /* \"#utility.yul\":2608:2788   */\n    tag_41:\n        /* \"#utility.yul\":2656:2733   */\n      0x4e487b7100000000000000000000000000000000000000000000000000000000\n        /* \"#utility.yul\":2653:2654   */\n      0x00\n        /* \"#utility.yul\":2646:2734   */\n      mstore\n        /* \"#utility.yul\":2753:2757   */\n      0x11\n        /* \"#utility.yul\":2750:2751   */\n      0x04\n        /* \"#utility.yul\":2743:2758   */\n      mstore\n        /* \"#utility.yul\":2777:2781   */\n      0x24\n        /* \"#utility.yul\":2774:2775   */\n      0x00\n        /* \"#utility.yul\":2767:2782   */\n      revert\n        /* \"#utility.yul\":2794:2985   */\n    tag_26:\n        /* \"#utility.yul\":2834:2837   */\n      0x00\n        /* \"#utility.yul\":2853:2873   */\n      tag_75\n        /* \"#utility.yul\":2871:2872   */\n      dup3\n        /* \"#utility.yul\":2853:2873   */\n      tag_33\n      jump\t// in\n    tag_75:\n        /* \"#utility.yul\":2848:2873   */\n      swap2\n      pop\n        /* \"#utility.yul\":2887:2907   */\n      tag_76\n        /* \"#utility.yul\":2905:2906   */\n      dup4\n        /* \"#utility.yul\":2887:2907   */\n      tag_33\n      jump\t// in\n    tag_76:\n        /* \"#utility.yul\":2882:2907   */\n      swap3\n      pop\n        /* \"#utility.yul\":2930:2931   */\n      dup3\n        /* \"#utility.yul\":2927:2928   */\n      dup3\n        /* \"#utility.yul\":2923:2932   */\n      add\n        /* \"#utility.yul\":2916:2932   */\n      swap1\n      pop\n        /* \"#utility.yul\":2951:2954   */\n      dup1\n        /* \"#utility.yul\":2948:2949   */\n      dup3\n        /* \"#utility.yul\":2945:2955   */\n      gt\n        /* \"#utility.yul\":2942:2978   */\n      iszero\n      tag_77\n      jumpi\n        /* \"#utility.yul\":2958:2976   */\n      tag_78\n      tag_41\n      jump\t// in\n    tag_78:\n        /* \"#utility.yul\":2942:2978   */\n    tag_77:\n        /* \"#utility.yul\":2794:2985   */\n      swap3\n      swap2\n      pop\n      pop\n      jump\t// out\n        /* \"#utility.yul\":2991:3401   */\n    tag_29:\n        /* \"#utility.yul\":3031:3038   */\n      0x00\n        /* \"#utility.yul\":3054:3074   */\n      tag_80\n        /* \"#utility.yul\":3072:3073   */\n      dup3\n        /* \"#utility.yul\":3054:3074   */\n      tag_33\n      jump\t// in\n    tag_80:\n        /* \"#utility.yul\":3049:3074   */\n      swap2\n      pop\n        /* \"#utility.yul\":3088:3108   */\n      tag_81\n        /* \"#utility.yul\":3106:3107   */\n      dup4\n        /* \"#utility.yul\":3088:3108   */\n      tag_33\n      jump\t// in\n    tag_81:\n        /* \"#utility.yul\":3083:3108   */\n      swap3\n      pop\n        /* \"#utility.yul\":3143:3144   */\n      dup3\n        /* \"#utility.yul\":3140:3141   */\n      dup3\n        /* \"#utility.yul\":3136:3145   */\n      mul\n        /* \"#utility.yul\":3165:3195   */\n      tag_82\n        /* \"#utility.yul\":3183:3194   */\n      dup2\n        /* \"#utility.yul\":3165:3195   */\n      tag_33\n      jump\t// in\n    tag_82:\n        /* \"#utility.yul\":3154:3195   */\n      swap2\n      pop\n        /* \"#utility.yul\":3344:3345   */\n      dup3\n        /* \"#utility.yul\":3335:3342   */\n      dup3\n        /* \"#utility.yul\":3331:3346   */\n      div\n        /* \"#utility.yul\":3328:3329   */\n      dup5\n        /* \"#utility.yul\":3325:3347   */\n      eq\n        /* \"#utility.yul\":3305:3306   */\n      dup4\n        /* \"#utility.yul\":3298:3307   */\n      iszero\n        /* \"#utility.yul\":3278:3361   */\n      or\n        /* \"#utility.yul\":3255:3394   */\n      tag_83\n      jumpi\n        /* \"#utility.yul\":3374:3392   */\n      tag_84\n      tag_41\n      jump\t// in\n    tag_84:\n        /* \"#utility.yul\":3255:3394   */\n    tag_83:\n        /* \"#utility.yul\":3039:3401   */\n      pop\n        /* \"#utility.yul\":2991:3401   */\n      swap3\n      swap2\n      pop\n      pop\n      jump\t// out\n\n    auxdata: 0xa2646970667358221220fe7a97feb3c640f2a458c3ecd739a7eddc4c901880b31a6e3034f1ee78476fa064736f6c634300081a0033\n}\n",
				"bytecode": {
					"linkReferences": {},
					"object": "6080604052348015600e575f80fd5b5061031f8061001c5f395ff3fe608060405234801561000f575f80fd5b506004361061003f575f3560e01c806366d82b2b14610043578063771602f714610073578063c8a4ac9c146100a3575b5f80fd5b61005d60048036038101906100589190610166565b6100d3565b60405161006a91906101bc565b60405180910390f35b61008d60048036038101906100889190610166565b610105565b60405161009a91906101e4565b60405180910390f35b6100bd60048036038101906100b89190610166565b61011a565b6040516100ca91906101e4565b60405180910390f35b5f82826040516020016100e792919061021d565b60405160208183030381529060405280519060200120905092915050565b5f81836101129190610275565b905092915050565b5f818361012791906102a8565b905092915050565b5f80fd5b5f819050919050565b61014581610133565b811461014f575f80fd5b50565b5f813590506101608161013c565b92915050565b5f806040838503121561017c5761017b61012f565b5b5f61018985828601610152565b925050602061019a85828601610152565b9150509250929050565b5f819050919050565b6101b6816101a4565b82525050565b5f6020820190506101cf5f8301846101ad565b92915050565b6101de81610133565b82525050565b5f6020820190506101f75f8301846101d5565b92915050565b5f819050919050565b61021761021282610133565b6101fd565b82525050565b5f6102288285610206565b6020820191506102388284610206565b6020820191508190509392505050565b7f4e487b71000000000000000000000000000000000000000000000000000000005f52601160045260245ffd5b5f61027f82610133565b915061028a83610133565b92508282019050808211156102a2576102a1610248565b5b92915050565b5f6102b282610133565b91506102bd83610133565b92508282026102cb81610133565b915082820484148315176102e2576102e1610248565b5b509291505056fea2646970667358221220fe7a97feb3c640f2a458c3ecd739a7eddc4c901880b31a6e3034f1ee78476fa064736f6c634300081a0033",
					"opcodes": "PUSH1 0x80 PUSH1 0x40 MSTORE CALLVALUE DUP1 ISZERO PUSH1 0xE JUMPI PUSH0 DUP1 REVERT JUMPDEST POP PUSH2 0x31F DUP1 PUSH2 0x1C PUSH0 CODECOPY PUSH0 RETURN INVALID PUSH1 0x80 PUSH1 0x40 MSTORE CALLVALUE DUP1 ISZERO PUSH2 0xF JUMPI PUSH0 DUP1 REVERT JUMPDEST POP PUSH1 0x4 CALLDATASIZE LT PUSH2 0x3F JUMPI PUSH0 CALLDATALOAD PUSH1 0xE0 SHR DUP1 PUSH4 0x66D82B2B EQ PUSH2 0x43 JUMPI DUP1 PUSH4 0x771602F7 EQ PUSH2 0x73 JUMPI DUP1 PUSH4 0xC8A4AC9C EQ PUSH2 0xA3 JUMPI JUMPDEST PUSH0 DUP1 REVERT JUMPDEST PUSH2 0x5D PUSH1 0x4 DUP1 CALLDATASIZE SUB DUP2 ADD SWAP1 PUSH2 0x58 SWAP2 SWAP1 PUSH2 0x166 JUMP JUMPDEST PUSH2 0xD3 JUMP JUMPDEST PUSH1 0x40 MLOAD PUSH2 0x6A SWAP2 SWAP1 PUSH2 0x1BC JUMP JUMPDEST PUSH1 0x40 MLOAD DUP1 SWAP2 SUB SWAP1 RETURN JUMPDEST PUSH2 0x8D PUSH1 0x4 DUP1 CALLDATASIZE SUB DUP2 ADD SWAP1 PUSH2 0x88 SWAP2 SWAP1 PUSH2 0x166 JUMP JUMPDEST PUSH2 0x105 JUMP JUMPDEST PUSH1 0x40 MLOAD PUSH2 0x9A SWAP2 SWAP1 PUSH2 0x1E4 JUMP JUMPDEST PUSH1 0x40 MLOAD DUP1 SWAP2 SUB SWAP1 RETURN JUMPDEST PUSH2 0xBD PUSH1 0x4 DUP1 CALLDATASIZE SUB DUP2 ADD SWAP1 PUSH2 0xB8 SWAP2 SWAP1 PUSH2 0x166 JUMP JUMPDEST PUSH2 0x11A JUMP JUMPDEST PUSH1 0x40 MLOAD PUSH2 0xCA SWAP2 SWAP1 PUSH2 0x1E4 JUMP JUMPDEST PUSH1 0x40 MLOAD DUP1 SWAP2 SUB SWAP1 RETURN JUMPDEST PUSH0 DUP3 DUP3 PUSH1 0x40 MLOAD PUSH1 0x20 ADD PUSH2 0xE7 SWAP3 SWAP2 SWAP1 PUSH2 0x21D JUMP JUMPDEST PUSH1 0x40 MLOAD PUSH1 0x20 DUP2 DUP4 SUB SUB DUP2 MSTORE SWAP1 PUSH1 0x40 MSTORE DUP1 MLOAD SWAP1 PUSH1 0x20 ADD KECCAK256 SWAP1 POP SWAP3 SWAP2 POP POP JUMP JUMPDEST PUSH0 DUP2 DUP4 PUSH2 0x112 SWAP2 SWAP1 PUSH2 0x275 JUMP JUMPDEST SWAP1 POP SWAP3 SWAP2 POP POP JUMP JUMPDEST PUSH0 DUP2 DUP4 PUSH2 0x127 SWAP2 SWAP1 PUSH2 0x2A8 JUMP JUMPDEST SWAP1 POP SWAP3 SWAP2 POP POP JUMP JUMPDEST PUSH0 DUP1 REVERT JUMPDEST PUSH0 DUP2 SWAP1 POP SWAP2 SWAP1 POP JUMP JUMPDEST PUSH2 0x145 DUP2 PUSH2 0x133 JUMP JUMPDEST DUP2 EQ PUSH2 0x14F JUMPI PUSH0 DUP1 REVERT JUMPDEST POP JUMP JUMPDEST PUSH0 DUP2 CALLDATALOAD SWAP1 POP PUSH2 0x160 DUP2 PUSH2 0x13C JUMP JUMPDEST SWAP3 SWAP2 POP POP JUMP JUMPDEST PUSH0 DUP1 PUSH1 0x40 DUP4 DUP6 SUB SLT ISZERO PUSH2 0x17C JUMPI PUSH2 0x17B PUSH2 0x12F JUMP JUMPDEST JUMPDEST PUSH0 PUSH2 0x189 DUP6 DUP3 DUP7 ADD PUSH2 0x152 JUMP JUMPDEST SWAP3 POP POP PUSH1 0x20 PUSH2 0x19A DUP6 DUP3 DUP7 ADD PUSH2 0x152 JUMP JUMPDEST SWAP2 POP POP SWAP3 POP SWAP3 SWAP1 POP JUMP JUMPDEST PUSH0 DUP2 SWAP1 POP SWAP2 SWAP1 POP JUMP JUMPDEST PUSH2 0x1B6 DUP2 PUSH2 0x1A4 JUMP JUMPDEST DUP3 MSTORE POP POP JUMP JUMPDEST PUSH0 PUSH1 0x20 DUP3 ADD SWAP1 POP PUSH2 0x1CF PUSH0 DUP4 ADD DUP5 PUSH2 0x1AD JUMP JUMPDEST SWAP3 SWAP2 POP POP JUMP JUMPDEST PUSH2 0x1DE DUP2 PUSH2 0x133 JUMP JUMPDEST DUP3 MSTORE POP POP JUMP JUMPDEST PUSH0 PUSH1 0x20 DUP3 ADD SWAP1 POP PUSH2 0x1F7 PUSH0 DUP4 ADD DUP5 PUSH2 0x1D5 JUMP JUMPDEST SWAP3 SWAP2 POP POP JUMP JUMPDEST PUSH0 DUP2 SWAP1 POP SWAP2 SWAP1 POP JUMP JUMPDEST PUSH2 0x217 PUSH2 0x212 DUP3 PUSH2 0x133 JUMP JUMPDEST PUSH2 0x1FD JUMP JUMPDEST DUP3 MSTORE POP POP JUMP JUMPDEST PUSH0 PUSH2 0x228 DUP3 DUP6 PUSH2 0x206 JUMP JUMPDEST PUSH1 0x20 DUP3 ADD SWAP2 POP PUSH2 0x238 DUP3 DUP5 PUSH2 0x206 JUMP JUMPDEST PUSH1 0x20 DUP3 ADD SWAP2 POP DUP2 SWAP1 POP SWAP4 SWAP3 POP POP POP JUMP JUMPDEST PUSH32 0x4E487B7100000000000000000000000000000000000000000000000000000000 PUSH0 MSTORE PUSH1 0x11 PUSH1 0x4 MSTORE PUSH1 0x24 PUSH0 REVERT JUMPDEST PUSH0 PUSH2 0x27F DUP3 PUSH2 0x133 JUMP JUMPDEST SWAP2 POP PUSH2 0x28A DUP4 PUSH2 0x133 JUMP JUMPDEST SWAP3 POP DUP3 DUP3 ADD SWAP1 POP DUP1 DUP3 GT ISZERO PUSH2 0x2A2 JUMPI PUSH2 0x2A1 PUSH2 0x248 JUMP JUMPDEST JUMPDEST SWAP3 SWAP2 POP POP JUMP JUMPDEST PUSH0 PUSH2 0x2B2 DUP3 PUSH2 0x133 JUMP JUMPDEST SWAP2 POP PUSH2 0x2BD DUP4 PUSH2 0x133 JUMP JUMPDEST SWAP3 POP DUP3 DUP3 MUL PUSH2 0x2CB DUP2 PUSH2 0x133 JUMP JUMPDEST SWAP2 POP DUP3 DUP3 DIV DUP5 EQ DUP4 ISZERO OR PUSH2 0x2E2 JUMPI PUSH2 0x2E1 PUSH2 0x248 JUMP JUMPDEST JUMPDEST POP SWAP3 SWAP2 POP POP JUMP INVALID LOG2 PUSH5 0x6970667358 0x22 SLT KECCAK256 INVALID PUSH27 0x97FEB3C640F2A458C3ECD739A7EDDC4C901880B31A6E3034F1EE78 SELFBALANCE PUSH16 0xA064736F6C634300081A003300000000 "
				},
				"gasEstimates": {
					"creation": {
						"codeDepositCost": "159800",
						"executionCost": "200",
						"totalCost": "160000"
					},
					"external": {
						"add(uint256,uint256)": "infinite",
						"hashPair(uint256,uint256)": "infinite",
						"mul(uint256,uint256)": "infinite"
					}
				},
				"methodIdentifiers": {
					"add(uint256,uint256)": "771602f7",
					"hashPair(uint256,uint256)": "66d82b2b",
					"mul(uint256,uint256)": "c8a4ac9c"
				}
			},
			"storageLayout": {
				"storage": [],
				"types": null
			},
			"userdoc": {
				"kind": "user",
				"methods": {},
				"version": 1
			}
		}
	}
}